:020000040800F2
:1000000078040020C1010008C9010008CB010008E4
:10001000CD010008CF010008D10100080000000058
:10002000000000000000000000000000D3010008F4
:10003000D501000800000000D7010008D901000820
:10004000DB010008DB010008DB010008DB01000820
:10005000DB010008DB010008DB010008DB01000810
:10006000DB010008DB010008DB010008DB01000800
:10007000DB010008DB010008DB010008DB010008F0
:10008000DB010008DB010008DB010008DB010008E0
:10009000DB010008DB010008DB010008DB010008D0
:1000A000DB010008DB010008DB010008DB010008C0
:1000B000DB010008DB010008DB010008DB010008B0
:1000C000DB010008DB010008DB010008DB010008A0
:1000D000DB010008DB010008DB010008DB01000890
:1000E000DB010008DB010008DB010008DB01000880
:1000F000DB010008DB010008DB010008DB01000870
:10010000DB010008DB010008DB010008DB0100085F
:10011000DB010008DB010008DB010008DB0100084F
:10012000DB010008DB010008DB010008DB0100083F
:10013000DB010008DB010008DB010008DB0100082F
:10014000DB010008DB010008DB010008DB0100081F
:10015000DB010008DB010008DB010008DB0100080F
:10016000DB010008DB010008DB010008DB010008FF
:10017000DB010008DB010008DB010008DB010008EF
:10018000DB010008DB010008DB010008DB010008DF
:10019000DB010008DB010008DB010008DB010008CF
:1001A0000000000000000000DB010008DFF80CD0B8
:1001B00000F018F800480047850D0008780400207A
:1001C0000648804706480047FEE7FEE7FEE7FEE7F1
:1001D000FEE7FEE7FEE7FEE7FEE7FEE7A50A00080A
:1001E000AD010008064C074D06E0E06840F0010351
:1001F00094E8070098471034AC42F6D3FFF7DAFFD3
:10020000B00D0008D00D00080146114A12884A437B
:100210004FF0E0235A6100229A611A46126942F0B7
:1002200001021A6100BF4FF0E022106900F00102E4
:100230001AB100F48032002AF5D04FF0E0221269A2
:1002400022F001024FF0E0231A6100229A61704708
:1002500002000020F0B50A4600210023002400BF60
:100260003DE0012505FA01F3156805EA03049C4207
:1002700034D105684F000326BE40B54305601579AB
:100280004E00B5400668354305601579012D02D052
:100290001579022D16D185684F000326BE40B5435F
:1002A000856055794E00B540866835438560456860
:1002B00001268E40B5434560456896798E40B6B2BA
:1002C00035434560C5684F000326BE40B543C56051
:1002D000D5794E00B540C6683543C560491C102924
:1002E000BFD3F0BDF0B5002300244D07ED0E02FA98
:1002F00005F3CE1000F1200555F826504E07F70EF5
:100300000F26BE40B543CF1000F1200646F8275017
:10031000CE1000F1200555F8265045EA0304CE1012
:1003200000F1200545F82640F0BD41837047018368
:100330007047000000B585B00020ADF800004FF414
:100340008270ADF802000020ADF80400ADF80600A0
:10035000ADF808004FF40070ADF80A001820ADF8B1
:100360000C000020ADF80E000720ADF81000694623
:10037000054800F0D5FA0121034800F0B7FAFF2044
:1003800000F08AFA05B000BD0030014010B57520BC
:1003900000F036F9044600216B2000F047F90721F0
:1003A0001A2000F043F93021372000F03FF94D21A9
:1003B000242000F03BF920216A2000F037F90121C8
:1003C000672000F033F98121272000F02FF9072161
:1003D000192000F02BF918211B2000F027F9182113
:1003E0001C2000F023F908211D2000F01FF9012135
:1003F0000B2000F0AFFC12210A2000F0ABFC10BD76
:1004000010B504217448FFF790FFBB2000F044FAB8
:10041000002406E0FF2000F03FFA70490855601CF8
:10042000C4B20E2CF6DB6E48007800287ED16B48F3
:1004300040786A49097840EA01206A490988401AE7
:1004400000B2694908806548C0786449897840EA03
:10045000012064494988401A00B2634948805F48D6
:1004600040795E49097940EA012000B25E498880FE
:100470005A48407A5949097A40EA01205B4909887B
:10048000401A00B25A4908805448C07A5349897AC0
:1004900040EA012055494988401A00B25449488031
:1004A0004E48407B4D49097B40EA01204F498988ED
:1004B000401A00B24E4988804848C0794749897936
:1004C00040EA012000B24B4908800846B0F900001C
:1004D00000F2092064214843222190FBF1F048F604
:1004E000B801084400EE100AB8EEC00A424880ED98
:1004F000000A90ED000ADFED410A80EE201A80ED3F
:10050000001A3B48B0F9000010F1040F07DD38482D
:10051000B0F90000042802DA002035490880344888
:10052000B0F9020010F1040F09DD00E016E03048D8
:10053000B0F90200042802DA00202D4948802C4836
:10054000B0F9040010F1040F41DD2948B0F90400AE
:1005500004283CDA00202649888038E020480078CA
:10056000A8B31E4840781D49097840EA012000B22E
:100570001D4908801948C0781849897840EA012047
:1005800000B219494880154840791449097940EA70
:10059000012000B2144988801048407A0F49097A36
:1005A00040EA012000B2124908800C48C07A0B4989
:1005B000897A40EA012000B20D4948800748407B13
:1005C0000649097B40EA012000B2094988800421DC
:1005D0000148FFF7ACFE10BD000802404C000020AF
:1005E0000400002006000020120000200C00002063
:1005F00018000020240000202000002000007A4481
:1006000070B5044604210848FFF78FFE44F08000CF
:1006100000F042F9FF2000F03FF9054604210248AE
:10062000FFF785FE284670BD0008024070B50546FC
:100630000C4604210748FFF778FE284600F02CF905
:100640000646204600F028F904210248FFF76FFE15
:10065000304670BD0008024070B5002100230F2213
:10066000C4781CB3174C246804F4E064C4F5E06457
:10067000C4F30721C1F10404E3B20A4144789C4069
:10068000E1B28478144021430C07210E0E4C05780A
:100690006155047804F01F050124AC4005786D1104
:1006A000AD0005F1E025C5F8004109E0047804F04B
:1006B0001F050124AC40054D0678761145F826400B
:1006C00070BD00000CED00E000E400E080E100E01F
:1006D00002490143024A1160704700000000FA0518
:1006E0000CED00E029B1064A12680243044B1A607F
:1006F00004E0034A12688243014B1A60704700000D
:100700003038024029B1064A12680243044B1A608D
:1007100004E0034A12688243014B1A6070470000EC
:100720004038024029B1064A12680243044B1A605D
:1007300004E0034A12688243014B1A6070470000CC
:1007400044380240F0B50021002200240225002692
:100750000223324F3F6807F00C0121B1042905D074
:10076000082937D105E02E4F076036E02D4F07608E
:1007700033E02A4F3F1F3F68C7F38056274F3F1F84
:100780003F6807F03F036EB1264FB7FBF3F7DFF882
:100790008CC0ACF1040CDCF800C0CCF3881C07FB67
:1007A0000CF40CE01E4FB7FBF3F7DFF870C0ACF1B0
:1007B000040CDCF800C0CCF3881C07FB0CF4174FCA
:1007C0003F1F3F68C7F301477F1C7D00B4FBF5F76F
:1007D000076002E0124F076000BF00BF0F4F3F6885
:1007E00007F0F0010909104F7A5C0768D7404760AD
:1007F0000A4F3F6807F4E051890A0B4F7A5C47685B
:10080000D7408760054F3F6807F46041490B064FAA
:100810007A5C4768D740C760F0BD000008380240E6
:100820000024F40000366E01280000201CB50121D0
:100830000520FFF757FF0420009069461448FFF792
:1008400009FD01210803FFF76DFF0522114611483C
:10085000FFF748FD052206210E48FFF743FD05225C
:1008600007210C48FFF73EFD02208DF804008DF8AB
:10087000050000208DF806008DF80700E0200090AC
:1008800069460448FFF7E6FCFFF754FD1CBD000075
:10089000000802400000024070B50546002405E053
:1008A000601CC4B2FA2C01DD002070BD02210E488C
:1008B00000F028F80028F3D029460B4800F02EF865
:1008C000002405E0601CC4B2FA2C01DD0020ECE736
:1008D0000121054800F016F80028F3D0024800F086
:1008E0001AF8C0B2E1E700000030014021B10288EF
:1008F00042F04002028004E002884FF6BF731A40C3
:10090000028070470246002013890B400BB1012082
:1009100000E0002070470146888970478181704758
:1009200010B50022028802F441520B884C88234300
:100930008C882343CC8823430C8923434C8923434D
:100940008C892343CC8923431A430280838B4FF243
:10095000FF74234083830B8A038210BD0CB50020F3
:10096000019000904148006840F480303F490860A1
:1009700000BF3E48006800F4003000900198401C21
:100980000190009818B90198B0F5A04FF1D13748FF
:10099000006800F4003010B10120009001E0002058
:1009A00000900098012860D130484030006840F045
:1009B00080502E49403108602D48006840F4404086
:1009C0002B49086029480830006828490831086028
:1009D0000846006840F4004008600846006840F49B
:1009E000A05008602348091F0860081F006840F0F5
:1009F0008070091F086000BF1C48006800F000708C
:100A00000028F9D01A48006840F48030184908607E
:100A100000BF1748406800F480300028F9D014481F
:100A2000006840F400301249086000BF1048406878
:100A300000F400300028F9D040F205700E4908603B
:100A40000A480830006820F00300084908310860AF
:100A50000846006840F00200086000BF0348083004
:100A6000006800F00C000828F8D10CBD00380240E6
:100A70000070004018544007003C0240042808D190
:100A80004FF0E021096941F004014FF0E0221161CB
:100A900007E04FF0E021096921F004014FF0E02266
:100AA0001161704710B51548006840F47000134993
:100AB00008601348006840F00100114908600020F8
:100AC0000F49083108600E4800680E4908400C497B
:100AD00008600D48091D0860081F006820F4802088
:100AE000091F0860002006490C310860FFF736FF37
:100AF0004FF0006001498039086010BD88ED00E0CA
:100B000000380240FFFFF6FE1030002421B1828938
:100B100042F40052828104E082894DF6FF731A404C
:100B200082817047F0B5034600240026002500208E
:100B300040F66A17B94200D100BF1846C1F342140B
:100B400001F01F06012707FA06F5012C01D10C3030
:100B500004E0022C01D1103000E014301AB1076813
:100B60002F43076002E00768AF430760F0BD000055
:100B70002DE9FF4705460E460024A14600BFA046CA
:100B8000B08900B100BF2C8A24F44054F08804439B
:100B90002C82AC8941F20C608443B08831890843CF
:100BA000718908430443AC81AC8A24F44074B08951
:100BB0000443AC826846FFF7C5FD2048854202D059
:100BC0001F48854202D1DDF80C9001E0DDF8089065
:100BD000A88900F4004040B109EBC90000EB0910FE
:100BE00031684900B0FBF1F707E009EBC90000EB01
:100BF000091031688900B0FBF1F76420B7FBF0F011
:100C000004012009642101FB1078A88900F4004048
:100C100040B1322000EBC800B0FBF1F000F007005B
:100C2000044308E0322000EB08106421B0FBF1F02F
:100C300000F00F0004432C81BDE8FF870010014045
:100C40000014014010B588B0044601210846FFF7A2
:100C500049FD0121C804FFF755FD08220021224863
:100C6000FFF740FB082200211F48FFF73BFB032052
:100C7000069002208DF81C008DF81D0000208DF8D4
:100C80001E0001208DF81F0006A91748FFF7E2FAA1
:100C900002940020ADF80C00ADF80E00ADF8100085
:100CA000ADF814000C20ADF8120002A90F48FFF7B0
:100CB0005FFF01210D48FFF729FF012240F2255176
:100CC0000A48FFF72FFF34208DF8040003208DF829
:100CD00005008DF8060001208DF8070001A8FFF738
:100CE000BBFC08B010BD000000000240004C0040FA
:100CF00002E008C8121F08C1002AFAD170477047E5
:100D0000002001E001C1121F002AFBD17047000042
:100D100010B56FF00400FFF7B1FE0A4800680A49F9
:100D2000B0FBF1F0094908700846007800EB40017B
:100D3000C1EBC0104FF6FF7101EAC0000449088002
:100D400010BD00003800002000127A0000000020D2
:100D50000200002070B504460D464FF4FA760C21CF
:100D60002520FFF763FC21462620FFF75FFC29467C
:100D70006320FFF75BFC00BF3000A6F101018EB2DB
:100D8000FAD170BDFFF7C4FF4FF4A060FFF7A0FCDD
:100D90004FF4E130FFF756FFFFF748FDFFF7F6FA93
:100DA00005E0FFF72DFB4FF4FA70FFF72DFAF8E797
:100DB000D00D0008000000204C000000F00C0008DE
:100DC0001C0E00084C0000202C040000000D000840
:100DD0000000000000000000000000000000000013
:100DE0000000000000000000000000000000000003
:100DF00000000000000000000000000001020304E9
:100E00000102030406070809007A030A0000000033
:0C0E1000000000000102030406070809AE
:04000005080001AD41
:00000001FF
