:020000040800F2
:10000000A00E0020CD010008D5010008D70100088E
:10001000D9010008DB010008DD0100080000000034
:10002000000000000000000000000000DF010008E8
:10003000E101000800000000E3010008091B0008BE
:10004000E7010008E7010008E7010008E7010008F0
:10005000E7010008E7010008E7010008E7010008E0
:10006000E7010008E7010008E7010008E7010008D0
:10007000E7010008E7010008E7010008E7010008C0
:10008000E7010008E7010008E7010008E7010008B0
:10009000E7010008E7010008E7010008E7010008A0
:1000A000E7010008E7010008E7010008E701000890
:1000B000451F0008C1210008E7010008E70100080A
:1000C000E7010008E7010008E7010008E701000870
:1000D000E7010008E7010008E7010008E701000860
:1000E000E7010008E7010008E7010008E701000850
:1000F000E7010008E7010008E7010008E701000840
:10010000E7010008E7010008E7010008E70100082F
:10011000E7010008E7010008E7010008E70100081F
:10012000E7010008E7010008E7010008E70100080F
:1001300000F002F800F03AF80AA090E8000C8244BF
:100140008344AAF10107DA4501D100F02FF8AFF29C
:10015000090EBAE80F0013F0010F18BFFB1A43F0A5
:1001600001031847BC440000DC440000103A24BFDF
:1001700078C878C1FAD8520724BF30C830C144BF0C
:1001800004680C607047000000230024002500264E
:10019000103A28BF78C1FBD8520728BF30C148BFEA
:1001A0000B6070471FB51FBD10B510BD00F046F8BD
:1001B0001146FFF7F7FF03F077F800F064F803B497
:1001C000FFF7F2FF03BC02F063FD0000094880471F
:1001D00009480047FEE7FEE7FEE7FEE7FEE7FEE729
:1001E000FEE7FEE7FEE7FEE704480549054A064B41
:1001F00070470000F91B000831010008A002002030
:10020000A00E0020A0060020A00600207047704726
:1002100070477047704710B500F008F8006810BDCF
:1002200010B5044600F002F8046010BD00487047A5
:100230003C020020004870473C0200207546FFF752
:10024000F9FFAE4605006946534620F00700854693
:1002500018B020B5FFF7C8FFBDE820404FF00006FA
:100260004FF000074FF000084FF0000B21F007019E
:10027000AC46ACE8C009ACE8C009ACE8C009ACE8E1
:10028000C0098D4670470446AFF300802046FFF753
:1002900096FF0000002010E0002100EB4002174B09
:1002A00023F8121000EB400203EB4202518000EBF6
:1002B000400203EB42029180401C1428ECDB4FF01B
:1002C0007E510F4A116000210E4A11600E4A1160E2
:1002D0000E4A11604FF07E510D4A116000210D4A07
:1002E00011600D4A11600D4A11600D4A1160516094
:1002F00091600C4A1160516091607047C400002009
:100300002000002024000020280000202C000020D5
:100310003000002034000020380000203C00002085
:10032000B8000020080200200EB5002000900190C7
:100330000290354800883549097801EB4101344A7B
:1003400022F81100304840883049097801EB41011A
:1003500002EB410148802C4880882C49097801EB48
:10036000410102EB4101888028480078401C274960
:10037000087000202749087024E02649097801EB1D
:100380004101234A32F91110009808440090214994
:10039000097801EB410102EB4101B1F9021001982A
:1003A000084401901B49097801EB410102EB41012E
:1003B000B1F9041002980844029016480078401CD5
:1003C00014490870134800781428D6DB14210098CB
:1003D00090FBF1F000B2104908801421019890FBC5
:1003E000F1F000B20C4948801421029890FBF1F022
:1003F00000B20949888005480078142802D10020FD
:10040000024908700EBD0000760000204000002068
:10041000C4000020410000200C0000200FB42DE992
:10042000F04709990C9803F0A9FC074608990B9826
:1004300003F0A4FC804684490D98096803F09EFCF3
:10044000814682490868394603F084FE7F49486046
:100450007F490868414603F07DFE7D4948607D493B
:100460000868494603F076FE7A4948607A49B1F94E
:10047000000003F023FE044675480169204603F09E
:1004800069FE734948617449B1F9020003F016FE30
:1004900004466E480169204603F05CFE6B494861E2
:1004A0006D49B1F9040003F009FE04466948016989
:1004B000204603F04FFE67494861644AD16850689E
:1004C00003F05CFC044661484169204603F056FC99
:1004D0005E49C8615E4AD168506803F04FFC04462B
:1004E0005B484169204603F049FC5949C861594AB3
:1004F000D168506803F042FC0446564841692046E2
:1005000003F03CFC5349C8615448B0F90000C828C6
:100510007EDD5348007800287ED000F01FFD0028C3
:100520007AD04E49B1F9001001F2DC5003F0C6FD5B
:1005300082464648C169504603F00AFF06464448D1
:10054000C169304603F004FF05464248C1692846A8
:1005500003F0FEFE044603F091FD424948803F4906
:10056000B1F9001001F2DC5003F0A8FD82463748D3
:10057000C169504603F0ECFE06463548C169304675
:1005800003F0FCFB05463348C169284603F0F6FB3F
:10059000044603F073FD334988803049B1F90010F7
:1005A00001F2DC5003F08AFD82462848C1695046BA
:1005B00003F0E4FB06462648C169304603F0DEFB43
:1005C00005462448C169284603F0C2FE044603F0EC
:1005D00055FD2449C8802149B1F9001001F2DC50D1
:1005E00003F06CFD82461948C169504603F0C6FB12
:1005F00006461748C169304603F0AAFE054615486D
:10060000C169284603F0BAFB044603F037FD00E059
:1006100002E01449088105E00020124948808880E2
:10062000C88008810F4C248923B20E4CE48822B282
:100630000C4CA48821B20B4C648820B200F074FFEB
:10064000BDE8F0075DF814FB4800002048010020D9
:1006500068010020880100207C000020420000206A
:10066000440000203C010020002107E042F6E06148
:1006700000BF0A00A1F1010399B2FAD10200A0F172
:10068000010398B2F2D170472DE9F04102460025EE
:100690000026002000230024002791F803C00CF05E
:1006A0000F0591F803C00CF0100CBCF1000F03D043
:1006B00091F802C04CEA050591F800C0BCF1000FAA
:1006C00031D0146800202BE04FF0010C0CFA00F33D
:1006D000B1F800C00CEA03069E4220D183004FF01F
:1006E0000F0C0CFA03F7BC4305FA03FC4CEA0404B4
:1006F00091F803C0BCF1280F06D14FF0010C0CFAA1
:1007000000FCC2F814C00AE091F803C0BCF1480F25
:1007100005D14FF0010C0CFA00FCC2F810C0401CCF
:100720000828D1D31460B1F800C0BCF1FF0F34DD4C
:10073000546800202EE000F1080C4FF0010808FA80
:100740000CF3B1F800C00CEA03069E4221D18300ED
:100750004FF00F0C0CFA03F7BC4305FA03FC4CEA0C
:10076000040491F803C0BCF1280F05D100F1080C76
:1007700008FA0CF8C2F8148091F803C0BCF1480FD5
:1007800007D100F1080C4FF0010808FA0CF8C2F884
:100790001080401C0828CED35460BDE8F081416130
:1007A000704701617047000000B5A7B0FE48B0F97E
:1007B00000000A9003F082FCFC490B9003F0CAFC95
:1007C0002590F948B0F902000A9003F077FCF74948
:1007D0000B9003F0BFFC2490F348B0F904000A909A
:1007E00003F06CFCF1490B9003F0B4FC2390F0484B
:1007F000B0F900000B9003F061FC2290EC48B0F9D6
:1008000002000B9003F05AFC2190E948B0F9040073
:100810000B9003F053FC2090E6480168006803F059
:1008200099FC1F90E4480168E248006803F092FCDC
:100830001E90E2480168DF48006803F08BFC1D90C1
:10084000DD480168006803F085FC1C90DC48016805
:10085000D948006803F07EFC1B90D8480168006806
:1008600003F078FC1A90D6480168D448006803F079
:1008700071FC1990D2480168006803F06BFC189075
:10088000D0480168006803F065FC1190CE4801680B
:10089000006803F05FFC1090CC480168006803F02A
:1008A00059FC0F90CA480168006803F053FC0E9091
:1008B000C6480168C448006803F04CFC0D90C44869
:1008C0000168C048006803F045FC0C90C0482399BB
:1008D000006803F03FFC0990BC482499006803F0CD
:1008E00039FC0790B848006880F0004005902599D1
:1008F00003F030FC0690079903F02AFD089009994F
:1009000003F026FDB3490A9003F024FC0B90AD4898
:1009100001680B9803F032FAAA490860AC482499A0
:10092000006803F017FC0990A8482399006803F0B9
:1009300011FC0790A3482599006803F00BFC069072
:10094000079903F01BFA0890099903F001FDA149EA
:100950000A9003F0FFFB0B909B4801680B9803F093
:100960000DFA994908609A482599006803F0F2FB4E
:10097000099095482399006803F0ECFB0790914893
:100980002499006803F0E6FB0690079903F0E0FC69
:100990000890099903F0F2F98E490A9003F0DAFB06
:1009A0000B908A4801680B9803F0E8F987490860C2
:1009B00086482599006803F0CDFB09908248249968
:1009C000006803F0C7FB07907E482399006803F096
:1009D000C1FB0690079903F0D1F90890099903F03B
:1009E000B7FC7C490A9003F0B5FB0B90784801688E
:1009F0000B9803F0C3F976490860DDE9101003F0A5
:100A0000BDF905900F9903F0B9F906900E9903F01E
:100A1000B5F9079003F086F9CDE9080102F048FC2A
:100A2000CDE90A0102F06AFC269066482699006822
:100A300003F012FA6349086063482699006803F0DE
:100A40000BFA6149086061482699006803F004FACE
:100A50005E4908605E482699006803F0FDF95C492C
:100A60000860DDE9211003F075FB0A90209903F07E
:100A700071FB00210B9003F0B1FA01D127B000BD4A
:100A80002099084603F066FB06902199084603F07A
:100A900061FB04902299084603F05CFB03900499E3
:100AA00003F06CF90590069903F068F9079003F0DC
:100AB00039F9CDE9080102F0FBFBCDE90A0102F0AA
:100AC0001DFC26902699229803F0C6F922902699BB
:100AD000219803F0C1F921902699209803F0BCF9E0
:100AE00020901D991B9803F033FC4FF080410B9030
:100AF00003F030FB179019991E9803F03FF94FF05F
:100B000080410B9003F026FB16901C991F9803F070
:100B10001FFC0A901A9903F01BFC0B90189903F024
:100B20002DF915901699209803F014FB0B90159948
:100B3000219803F00FFB0A900B9903F009FC149025
:100B40001599229803F006FB0B901799209803F053
:100B500001FB0A900B9903F0FBFB13901799219866
:100B600003F0F8FA0B901699229803F0F3FA0A9022
:100B70000B9903F0EDFB12901649149803F0EAFA72
:100B80000B90154801680B9803F0F8F812490860BB
:100B90001049139803F0DEFA0B90104801680B9887
:100BA00003F0ECF80D491BE07C00002089A18B3A92
:100BB0000C0000202000002024000020280000203D
:100BC0002C000020300000203400002038000020DD
:100BD0003C0000206F12033A14000020180000208F
:100BE0000860D449129803F0B5FA0B90D248016816
:100BF0000B9803F0C3F8D04908604FF07F50149968
:100C000003F0A8FA0A90259903F0B8F80B90CB48A6
:100C100001680B9803F0B2F825904FF07F501399BC
:100C200003F098FA0A90249903F0A8F80B90C448AE
:100C300001680B9803F0A2F824904FF07F501299AE
:100C400003F088FA0A90239903F098F80B90BA48B9
:100C500001680B9803F092F82390BA482399006832
:100C600003F078FA0990B8482499006803F072FA02
:100C70000790B648006880F000400590259903F081
:100C800069FA0690079903F063FB0890099903F04D
:100C90005FFBA8490A9003F05DFA0B90AC4801682D
:100CA0000B9803F06BF8AA490860A64824990068DD
:100CB00003F050FA0990A4482399006803F04AFA17
:100CC0000790A3482599006803F044FA0690079915
:100CD00003F054F80890099903F03AFB95490A90FB
:100CE00003F038FA0B90994801680B9803F046F826
:100CF0009649086093482599006803F02BFA0990FB
:100D000092482399006803F025FA079090482499A7
:100D1000006803F01FFA0690079903F019FB08908A
:100D2000099903F02BF883490A9003F013FA0B900A
:100D3000854801680B9803F021F8834908608248D0
:100D40002599006803F006FA099080482499006804
:100D500003F000FA07907E482399006803F0FAF93F
:100D60000690079903F00AF80890099903F0F0FA41
:100D700070490A9003F0EEF90B90724801680B98E5
:100D800002F0FCFF6F4908601C991F9802F0F6FF03
:100D900005901A9902F0F2FF0690189902F0EEFF02
:100DA000079002F0BFFFCDE9080102F081FACDE91A
:100DB0000A0102F0A3FA269065482699006803F01C
:100DC0004BF86349086061482699006803F044F8CD
:100DD0005E4908605C482699006803F03DF85A496E
:100DE000086058482699006803F036F855490860AD
:100DF0004FF080401A9903F0ADF901904FF0404058
:100E00001C9903F0A7F90090019903F0A1FA4FF0A3
:100E10007E51029002F0B2FF039002F083FFCDE911
:100E200006014FF080401E9903F094F902904FF0B4
:100E30008040199903F08EF90190029902F09EFF0B
:100E4000039002F06FFFCDE90401DDE9062302F013
:100E50006BF94FF0C0423F4BCDE9080102F088FC2E
:100E6000CDE90A0102F04AFA3B4908604FF08040A0
:100E70001D9903F06FF904904FF040401B9903F067
:100E800069F90390049902F079FF059002F04AFF96
:100E9000CDE9060101F000FF4FF0C0422D4BCDE936
:100EA000080102F065FCCDE90A0102F027FA2A499F
:100EB00048604FF080400E9903F04CF901904FF0DC
:100EC00040400F9903F046F90090019903F040FA71
:100ED0004FF07E51029002F051FF039002F022FF8A
:100EE000CDE906014FF080400C9903F033F90290F0
:100EF0004FF080400D9903F02DF90190029902F016
:100F00003DFF039002F00EFFCDE90401DDE9062369
:100F100002F00AF94FF0C0420E4BCDE9080102F091
:100F200027FCCDE90A0102F0E9F90B49886000BF0E
:100F3000A4E500006F12033A1C00002014000020FA
:100F4000180000202C000020280000202400002091
:100F50002000002066A64C40B80000200B48008806
:100F600040F24C4188420FDA0848408840F26C71E8
:100F7000884209DD05488088884205DD0348C0882D
:100F8000884201DD002070470120FCE7A00000201E
:100F90001D48007890B31D480088B0F5E16F1EDD54
:100FA0001A484088B0F5966F19DA19480088401C35
:100FB0001749088008460088142190FBF1F201FBD4
:100FC000120078B91348C06880F400501149C86015
:100FD0001148006880F480500F49086002E000204A
:100FE0000B4908800A480088B0F5FA7F07D1002035
:100FF00007490880044908700120704701E000207B
:10100000FBE70120F9E7000044000020A0000020D9
:101010004E000020001001400C0C014010B52D487E
:101020000078002854D12C480088B0F5966F28DA53
:1010300029484088B0F5966F23DA27488088B0F5B4
:10104000966F21DA2448C088B0F5E16F1CDD234893
:101050000088401C2149088008460088142190FB24
:10106000F1F201FB120078B91D48C06880F400500D
:101070001B49C8601B48006880F48050194908600B
:1010800002E000201549088014480088B0F57A7FF6
:101090001CDD0020114908804FF0E020006920F09D
:1010A00001004FF0E0210861FFF7F4F841F28830C9
:1010B00000F06AF84FF0E020006940F001004FF0C6
:1010C000E021086101200349087010BD0020FCE701
:1010D0000120FAE744000020A00000204C0000207E
:1010E000001001400C0C014008B50121182000F04F
:1010F0005DFB4FF48050ADF8000010208DF8030028
:1011000003208DF8020069460548FFF7BDFA4FF449
:101110000050ADF8000069460248FFF7B5FA08BD77
:10112000000C01400010014010B500241AE04FF4FB
:1011300000511348FFF735FB4FF480511148FFF77A
:101140002EFBC820FFF790FA4FF400510C48FFF730
:1011500026FB4FF480510B48FFF723FBC820FFF715
:1011600083FA641C052CE2DB4FF400510448FFF7BE
:1011700018FB4FF480510348FFF713FB10BD00002C
:1011800000100140000C014070B50446002500200D
:101190002E490860486088602D4908604860886072
:1011A00001202C49087025462AE000F093F82848D1
:1011B00000682949B1F9001008442549086008462B
:1011C00040682549B1F902100844214948601F4888
:1011D00000682249B1F9001008441C49086008461B
:1011E00040681E49B1F90210084418494860084691
:1011F00080681A49B1F904100844144988606D1ECA
:10120000002DD2DC1248006890FBF4F000B21449C3
:1012100008800F48406890FBF4F000B248800B480B
:10122000006890FBF4F000B20E490880074840685F
:1012300090FBF4F000B248800448806890FBF4F022
:1012400000B2888000200349087070BD240200208D
:101250003002002068000020760000207C00002082
:101260006A0000207000002010B500F019FB752006
:1012700000F02EF970282BD180216B2000F03EF970
:101280006420FFF7F1F90721682000F037F96420A6
:10129000FFF7EAF901216B2000F030F900216C2002
:1012A00000F02CF902211A2000F028F90021192061
:1012B00000F024F918211B2000F020F910211C2037
:1012C00000F01CF900211D2000F018F9012010BDCC
:1012D0000020FCE770B501217348FFF760FABB20DE
:1012E00000F03CFB002406E0FF2000F037FB6F49D4
:1012F0000855601CC4B20E2CF6DB6D48007800283F
:101300007ED16A4840786949097840EA01206949F4
:101310000988401A00B2684908806448C078634967
:10132000897840EA012063494988401A00B262493D
:1013300048805E4840795D49097940EA012000B261
:101340005D4988805948407A5849097A40EA012025
:101350005A490988401A00B2594908805348C07A4E
:101360005249897A40EA012054494988401A00B21A
:10137000534948804D48407B4C49097B40EA012055
:101380004E498988401A00B24D4988804748C07943
:101390004649897940EA012000B24A490880084656
:1013A000B0F9000000F2092064214843222190FB9B
:1013B000F1F048F6B8014518284602F07FFE424990
:1013C000086042494048006802F046FD3E49086016
:1013D0003B48B0F9000010F1040F07DD3848B0F9C0
:1013E0000000042802DA0020354908803448B0F9AA
:1013F000020010F1040F09DD3148B0F9020000E0ED
:1014000013E0042802DA00202D4948802C48B0F966
:10141000040010F1040F41DD2948B0F9040004284C
:101420003CDA00202649888038E021480078A8B3BB
:101430001E4840781D49097840EA012000B21E4943
:1014400008801A48C0781949897840EA012000B21A
:1014500019494880154840791449097940EA012022
:1014600000B2154988801148407A1049097A40EA4B
:10147000012000B2124908800C48C07A0B49897AD1
:1014800040EA012000B20E4948800848407B0749E5
:10149000097B40EA012000B2094988800121024805
:1014A000FFF77FF970BD0000000C0140140200201E
:1014B000680000206A0000207600002070000020F4
:1014C0007C000020880000208400002000007A4476
:1014D00070B5044601210848FFF761F944F0800027
:1014E00000F03CFAFF2000F039FA054601210248DD
:1014F000FFF757F9284670BD000C014070B505464E
:101500000C4601210748FFF74AF9284600F026FA61
:101510000646204600F022FA01210248FFF741F971
:10152000304670BD000C014030B540F6AC54A042CE
:1015300000DD204640F6AC54A14200DD214640F6D5
:10154000AC54A24200DD224640F6AC54A34200DD7A
:101550002346002800DA0020002900DA0021002AB2
:1015600000DA0022002B00DA0023054D28802D1D13
:1015700029802D1D2A80024D2D1F2B8030BD00009B
:101580003808004070B5002100230F22C47804B34E
:10159000154C246804F4E064C4F5E064210AC1F148
:1015A0000403CA40447804FA03F1847814402143C8
:1015B00009010E4C0678A155047804F01F0501249A
:1015C000AC4005786D11AD0005F1E025C5F800418E
:1015D00009E0047804F01F050124AC40044D0678AE
:1015E000761145F8264070BD0CED00E000E400E007
:1015F00080E100E01E481F490860002088604FF02D
:101600007A5008611A481C490860002088604FF031
:101610007A50086119481A490860002088604FF024
:101620007E500861002017490860886008611649EB
:1016300008608860086115490860886008610D4984
:101640004860C86048610C494860C86048610C49FE
:101650004860C86048610B494860C86048610A49F1
:101660004860C860486109494860C860486170477F
:101670000000604148010020680100200000A041F6
:1016800088010020A8010020C8010020E8010020F6
:1016900070B504460D462946204600F0F3FC294665
:1016A000204600F0DDFD70BD2DE9F04389B0044611
:1016B0000D4616461F46DDE910890121082000F07D
:1016C00075F80121042000F061F84FF47070ADF856
:1016D000200018208DF8230003208DF8220008A98F
:1016E0002548FEF7D1FFADF81840ADF814500020A2
:1016F000ADF81A00ADF8160005A9204801F06EF803
:101700006020ADF804000120ADF80600ADF80A60D5
:101710000020ADF80C0001A9184800F0A9FE08212E
:10172000164800F0FAFEADF80A7001A9134800F05F
:10173000FDFE0821114800F058FFADF80A8001A90C
:101740000E4800F05FFF08210C4800F0B8FFADF82C
:101750000A9001A9094800F0BBFF0821074801F0E1
:1017600002F80121054800F0E9FD0121034800F0DD
:10177000F4FD09B0BDE8F083000C01400008004012
:1017800010B5FFF7A7FDFEF7CFFD10BD29B1064A42
:10179000D2690243044BDA6104E0034AD26982430E
:1017A000014BDA61704700000010024029B1064A7F
:1017B00092690243044B9A6104E0034A92698243AE
:1017C000014B9A61704700000010024030B50021C3
:1017D0000022002400232D4D6D6805F00C0121B17D
:1017E000042905D0082923D105E0294D056022E010
:1017F000274D05601FE0254D6D6805F47012234DDF
:101800006D6805F48034022505EB92421CB9214D28
:10181000554305600BE01D4D6D6805F400351DB1A5
:101820001C4D5543056002E0194D5543056002E02B
:10183000174D056000BF00BF144D6D6805F0F00145
:101840000909154D6B5C0568DD4045600F4D6D68FD
:1018500005F4E061090A104D6B5C4568DD40856068
:101860000A4D6D6805F46051C90A0B4D6B5C456803
:10187000DD40C560054D6D6805F44041890B074D9D
:101880006B5CC568B5FBF3F5056130BD0010024027
:1018900000127A0000093D008C0000209C0000200E
:1018A00000B587B001210C20FFF780FF012108035C
:1018B000FFF77CFF0120ADF8180010208DF81B0009
:1018C00003208DF81A0006A92148FEF7DDFEE0206E
:1018D000ADF8180018208DF81B0003208DF81A00B1
:1018E00006A91C48FEF7D0FE01211948FEF759FF52
:1018F000E0211848FEF755FF0021174800F058F87E
:101900000020ADF804004FF48270ADF8060000200E
:10191000ADF80800ADF80A00ADF80C004FF4007007
:10192000ADF80E001020ADF810000020ADF8120048
:101930000720ADF8140001A9074800F053F8012171
:10194000054800F035F8FF2000F008F807B000BDAA
:10195000000C0140000801400030014070B5054610
:10196000002405E0601CC4B2FA2C01DD002070BD2B
:1019700002210E4800F028F80028F3D029460B4831
:1019800000F02EF8002405E0601CC4B2FA2C01DD42
:101990000020ECE70121054800F016F80028F3D0FC
:1019A000024800F01AF8C0B2E1E700000030014040
:1019B00021B1028842F04002028004E002884FF622
:1019C000BF731A40028070470246002013890B4003
:1019D0000BB1012000E00020704701468889704764
:1019E0008181704710B50022028802F441520B88B1
:1019F0004C8823438C882343CC8823430C8923437E
:101A00004C8923438C892343CC8923431A43028086
:101A1000838B4FF2FF74234083830B8A038210BDB4
:101A200010B500F001F810BD0CB500200190009039
:101A30003348006840F480303149086000BF3048C6
:101A4000006800F4003000900198401C019000985C
:101A500018B90198B0F5A06FF1D12948006800F4D9
:101A6000003010B10120009001E0002000900098AB
:101A7000012843D12348006840F010002149086044
:101A80000846006820F0030008600846006840F03F
:101A9000020008601A4840681949486008464068D2
:101AA00048600846406840F48060486008464068E6
:101AB00020F47C1048600846406840F4E810486014
:101AC0000846006840F08070086000BF0C4800685D
:101AD00000F000700028F9D00948406820F00300A9
:101AE000074948600846406840F00200486000BF6F
:101AF0000348406800F00C000828F9D10CBD000034
:101B0000001002400020024000B585B03448008833
:101B1000401C33490880FFF733FEFFF77FFA0028A7
:101B20003DD0FFF735FAFEF73FFE2E480078401C07
:101B30002C49087008460078022817D10020087048
:101B400000F04AFF28480068029027484068039048
:101B50002548806825490490D1E90101CDE90001BB
:101B60002248036802A807C8FEF758FC1C480088F2
:101B70004FF4FA7190FBF1F201FB120068BB1C48B4
:101B8000C06880F400501A49C8601A48006880F4A0
:101B90008050184908600020114908801DE000238A
:101BA0001A4619461846FFF7BFFC0D4800884FF447
:101BB0007A7190FBF1F201FB120070B90C48C06819
:101BC00080F400500A49C8600A48006880F48050D8
:101BD0000849086000200249088005B000BD0000E7
:101BE0000600002008000020B800002008020020A5
:101BF000001001400C0C014010B51348006840F083
:101C000001001149086008464068104908400E4923
:101C10004860084600680E4908400B4908600846BD
:101C2000006820F4802008600846406820F4FE0028
:101C300048604FF41F008860FFF7F2FE4FF000602D
:101C40000449086010BD0000001002400000FFF8C9
:101C5000FFFFF6FE08ED00E01CB5FFF745FAFFF7C1
:101C6000C9FC00200090034602464721019040F63F
:101C70009F70FFF719FD4FF4E12000F001FE00BF57
:101C8000FFF7F2FA0028FBD0FFF74EFA00F006F853
:101C900047214FF6FF70FFF7FBFC1CBD30B516481F
:101CA00000684FF47A72B0FBF2F1B1F1807F01D39A
:101CB00001201DE021F07F40401E4FF0E0225061E6
:101CC00050170F22002807DA13071D0E0B4B00F0E8
:101CD0000F04241F1D5503E013071C0E084B1C5452
:101CE00000BF00204FF0E02290610720106100202B
:101CF00008B100BFFEE730BD5400002018ED00E041
:101D000000E400E0F0B50C46154600220021068CE8
:101D10004FF6FE773E400684028B018C4FF60C7620
:101D200032407E1C06EA03162E433243104EB04268
:101D30000ED0104EB0420BD0B0F1804F08D00E4EF6
:101D4000B04205D00D4EB04202D00D4EB04206D189
:101D50004FF6FD76314044F00106314305E04FF681
:101D6000F576314044F00106314302830184F0BD31
:101D7000002C0140003401400004004000080040F5
:101D8000000C0040F0B50C4615460022002100264C
:101D9000078C4FF6EF7C07EA0C070784028B018C57
:101DA0004FF6FF7707EA041640F6FF473A404FF632
:101DB000FF7707EA03373A434FF6FF7707EA05272D
:101DC0003A43114FB8420ED0104FB8420BD0B0F189
:101DD000804F08D00E4FB84205D00E4FB84202D007
:101DE0000D4FB84206D14FF6DF77394046F0100765
:101DF000394305E04FF65F77394044F01007394327
:101E000002830184F0BD0000002C01400034014039
:101E10000004004000080040000C0040F0B50C46F3
:101E20001546002200210026078C4FF6FF6C07EABA
:101E30000C070784828B018C4FF6FF7707EA042694
:101E40004FF60C773A404FF6FF7707EA03172F4318
:101E50003A43114FB8420ED0104FB8420BD0B0F1F8
:101E6000804F08D00E4FB84205D00E4FB84202D076
:101E70000D4FB84206D14FF6FF57394046F48077F0
:101E8000394305E04FF2FF57394044F48077394336
:101E900082830184F0BD0000002C01400034014029
:101EA0000004004000080040000C0040F0B50C4663
:101EB0001546002200210026078C4EF6FF7C07EA1B
:101EC0000C070784828B018C4FF6FF7707EA0436F4
:101ED00040F6FF473A404FF6FF7707EA05273A43B7
:101EE0004FF6FF7707EA03373A43114FB8420ED057
:101EF000104FB8420BD0B0F1804F08D00E4FB8420F
:101F000005D00E4FB84202D00D4FB84206D14DF663
:101F1000FF77394046F48057394305E047F6FF57CD
:101F2000394044F48057394382830184F0BD000076
:101F3000002C014000340140000400400008004033
:101F4000000C004010B50221480700F01FFA10B342
:101F50004A48007870B14FF0804000F00AFA4849D2
:101F6000088000204549087000214FF0804000F0B3
:101F7000CBFA0BE000214FF0804000F001FC012083
:101F80003E4908700221800700F0BEFA03214FF09D
:101F9000804000F0DFF90421080700F0F7F900B3F2
:101FA0003648407870B14FF0804000F0E5F9344990
:101FB000488000203149487000214FF0804000F0F7
:101FC00007FB0AE001202D4948700021800700F03E
:101FD000D7FB0221480700F0FBFA0421080700F0B4
:101FE000B9F90821C80600F0D1F900B32348807878
:101FF00070B14FF0804000F0C2F921498880002084
:102000001E49887000214FF0804000F04BFB0AE031
:1020100001201A4988700021800700F0B1FB0221DD
:10202000480700F03FFB0821C80600F093F9102193
:10203000880600F0ABF900B31048C07870B14FF0DB
:10204000804000F09FF90E49C88000200B49C870FD
:1020500000214FF0804000F079FB0AE001200749A1
:10206000C8700021800700F08BFB0221480700F0B8
:102070006DFB1021880600F06DF910BD00000020F6
:10208000A000002030B589B005460C460121084665
:10209000FFF77CFB01210420FFF788FB0F20ADF840
:1020A000200028208DF8230003208DF8220008A9A5
:1020B0004248FEF7E9FA01214048FEF770FB022191
:1020C0003E48FEF76CFB04213C48FEF768FB082104
:1020D0003A48FEF764FBADF81850ADF81440002004
:1020E000ADF81A00ADF8160005A94FF0804000F0D9
:1020F00075FB0020ADF80800ADF80A000120ADF82E
:102100000C000020ADF80E00ADF8100002A94FF051
:10211000804000F04DF90420ADF808000020ADF833
:102120000A000120ADF80C000020ADF80E00ADF85B
:10213000100002A94FF0804000F03AF90820ADF8F5
:1021400008000020ADF80A000120ADF80C000020C6
:10215000ADF80E00ADF8100002A94FF0804000F07D
:1021600027F90C20ADF808000020ADF80A00012086
:10217000ADF80C000020ADF80E00ADF8100002A97B
:102180004FF0804000F014F91C208DF8040003206B
:102190008DF8050002208DF8060001208DF807005B
:1021A00001A8FFF7EFF901221F21900700F056F96F
:1021B0000121880700F0D1F809B030BD00080140C6
:1021C00010B50221234800F0E1F8F0B1224800796F
:1021D00060B1204800F0CDF82049088100201E4958
:1021E000087100211B4800F08FF90AE0002119480E
:1021F00000F0C6FA0120184908710221154800F0C4
:1022000083F90321134800F0A5F80421114800F0D8
:10221000BDF8F0B11048407960B10E4800F0ACF85C
:102220000E49488100200C4948710021094800F0FE
:10223000CFF90AE00120084948710021054800F063
:102240009FFA0221034800F0C3F90421014800F07D
:1022500081F810BD0004004000000020A000002014
:1022600030B589B005460C4601210220FFF78EFAF1
:1022700001210820FFF79AFA3020ADF8200018203D
:102280008DF8230003208DF8220008A92948FEF7C5
:10229000FBF910212748FEF782FA20212548FEF796
:1022A0007EFAADF81850ADF814400020ADF81A00D1
:1022B000ADF8160005A9204800F090FA0020ADF80E
:1022C0000800ADF80A000120ADF80C000020ADF8C0
:1022D0000E00ADF8100002A9174800F069F80420BC
:1022E000ADF808000020ADF80A000120ADF80C00A0
:1022F0000020ADF80E00ADF8100002A90E4800F065
:1023000057F81D208DF8040003208DF805000120EA
:102310008DF806008DF8070001A8FFF733F90122B8
:102320000721054800F09AF80121034800F015F84C
:1023300009B030BD000C01400004004021B102880A
:1023400042F08002028004E002884FF67F731A4058
:1023500002807047CA430282704721B1028842F06E
:102360000102028004E002884FF6FE731A400280E8
:1023700070470146888E70470146088F70470146B6
:10238000888F70470146B1F84000704730B502466B
:10239000002000230024158A05EA0103958905EA37
:1023A000010413B10CB1012000E0002030BD000099
:1023B00070B505460C46244885420ED02348854218
:1023C0000BD0B5F1804F08D02148854205D0214877
:1023D000854202D02048854200D100E000BF20881D
:1023E00050B92389A28861882846FFF78BFCE188D1
:1023F000284600F0C7F925E0208804280AD123895F
:10240000A28861882846FFF7BDFCE188284600F0D5
:10241000C2F917E0208808280AD12389A288618898
:102420002846FFF7FBFCE188284600F0C1F909E0E7
:102430002389A28861882846FFF738FDE18828466D
:1024400000F0BFF970BD0000002C014000340140D5
:102450000004004000080040000C00401AB18389CD
:102460000B43838102E083898B43838170470000A3
:1024700070B5002400220023058C4FF6FE7635400F
:102480000584028C8388048B4FF68F752C40B51E13
:102490002C400D882C43751E2A400D892A434D88F7
:1024A0002A43144DA8420BD0134DA84208D0134D17
:1024B000A84205D0124DA84202D0124DA84213D115
:1024C0004FF6F7752A404D892A434FF6FB752A408F
:1024D0008D882A434FF6FF652B404FF6FF552B4062
:1024E0008D892B43CD892B4383800483CD888586BA
:1024F000028470BD002C01400034014000400140C6
:1025000000440140004801400A460021018C4FF67A
:10251000FD7319401143018470470A460021018B65
:102520004FF6F773194011430183704770B50024CB
:1025300000220023058C4FF6EF7635400584028C8F
:102540008388048B48F6FF752C404FF6FF452C40DE
:102550000D884FF6FF7606EA05252C434FF6DF750A
:102560002A400D8906EA05152A434D8806EA051515
:102570002A43154DA84202D0144DA8421DD14FF652
:102580007F752A404D894FF6FF7606EA05152A43E6
:102590004FF6BF752A408D8806EA05152A434FF687
:1025A000FF352B404FF2FF752B408D8906EA8505DC
:1025B0002B43CD8906EA85052B4383800483CD8890
:1025C0000587028470BD0000002C014000340140EA
:1025D0000A460021018C4FF6DF7319404FF6FF7356
:1025E00003EA02131943018470470A460021018B54
:1025F0004FF2FF7319404FF6FF7303EA02231943AA
:102600000183704770B5002400220023058C4FF62B
:10261000FF6635400584028C8388848B4FF68F7566
:102620002C404FF6FC752C400D882C434FF6FF557F
:102630002A400D894FF6FF7606EA05252A434D8884
:1026400006EA05252A43154DA84202D0144DA8429A
:102650001DD14FF2FF752A404D894FF6FF7606EAED
:1026600005252A434FF6FF352A408D8806EA0525C1
:102670002A434EF6FF752B404DF6FF752B408D8992
:1026800006EA05152B43CD8906EA05152B43838001
:102690008483CD888587028470BD0000002C0140B2
:1026A000003401400A460021018C4FF6FF531940C7
:1026B0004FF6FF7303EA02231943018470470A4669
:1026C0000021818B4FF6F7731940114381837047C6
:1026D00070B5002200230024058C4EF6FF763540AD
:1026E0000584038C8488828B48F6FF752A404FF658
:1026F000FF452A400D884FF6FF7606EA05252A4356
:102700004DF6FF752B400D8906EA05352B434D88A4
:1027100006EA05352B430B4DA84202D00A4DA842CC
:1027200008D14BF6FF752C408D894FF6FF7606EAEF
:1027300085152C4384808283CD88A0F84050038483
:1027400070BD0000002C0140003401400A46002109
:10275000018C4DF6FF7319404FF6FF7303EA023305
:102760001943018470470A460021818B4FF2FF73A1
:1027700019404FF6FF7303EA022319438183704720
:1027800081847047028B4FF6F3731A400283028BE9
:102790000A4302837047028B4FF2FF331A400283D1
:1027A000028B4FF6FF7303EA01231A43028370473B
:1027B000828B4FF6F3731A408283828B0A438283A3
:1027C0007047828B4FF2FF331A408283828B4FF621
:1027D000FF7303EA01231A438283704700220288B1
:1027E0001D4B98420ED01D4B98420BD0B0F1804F3C
:1027F00008D01B4B984205D01A4B984202D01A4B76
:10280000984204D14FF68F731A404B881A43174BE6
:10281000984207D0164B984204D04FF6FF431A4017
:10282000CB881A4302808B8883850B8803850A4BEB
:1028300098420BD0094B984208D00E4B984205D0D5
:102840000D4B984202D00D4B984201D10B7A038672
:102850000123838270470000002C014000340140B6
:102860000004004000080040000C00400010004040
:102870000014004000400140004401400048014075
:1028800010B586B0044601210920FEF78FFF012113
:102890008804FEF77BFF4FF48060ADF8140003203E
:1028A0008DF8160018208DF8170005A90C48FDF7C3
:1028B000EBFE01940020ADF80800ADF80A00ADF879
:1028C0000C00ADF810000C20ADF80E0001A9054871
:1028D00000F016F80121034800F006F806B010BD1C
:1028E000000C01400048004021B1828942F40052AE
:1028F000828104E082894DF6FF731A40828170471D
:102900002DE9F04786B005460E460024A24600BFDA
:10291000A1460027B08900B100BF2F462C8A4CF693
:10292000FF700440F08804432C82AC894EF6F3100B
:102930000440B08831890843718908430443AC815D
:10294000AC8A4FF6FF400440B0890443AC8201A832
:10295000FEF73CFF1F48874202D1DDF810A001E0DE
:10296000DDF80CA0A88900F4004040B10AEBCA00D1
:1029700000EB0A1031684900B0FBF1F807E00AEB00
:10298000CA0000EB0A1031688900B0FBF1F864203E
:10299000B8FBF0F004012009642101FB1089A8892B
:1029A00000F4004040B1322000EBC900B0FBF1F070
:1029B00000F00700044308E0322000EB0910642116
:1029C000B0FBF1F000F00F0004432C8106B0BDE82D
:1029D000F08700000038014070B562480088401C54
:1029E0006049088060498988A1F2DC5001F066FBEB
:1029F00004465E4901F0AEFB5D49086008684FF08F
:102A0000404101F073FC09D2594908684FF08041F8
:102A100001F06CFB02D20020554908605249C98878
:102A2000A1F2DC5001F04AFB0446504901F092FB50
:102A30004F49486048684FF0404101F057FC09D2C7
:102A40004B4948684FF0804101F050FB02D2002012
:102A50004749486044484088A0F57A70400000B279
:102A6000444908803F48008814287AD100203D4915
:102A700008803D480088B0F5C86F04DC3A480088FB
:102A8000B0F5AF6F18DA3B48B0F90000C82813DD85
:102A900035490988A1F2DC5001F010FB80F00045B7
:102AA0003549284601F056FB0446314881682046E6
:102AB00001F064F92E4988602D4988682F4901F09A
:102AC00015FC0DD22E498868002101F00FFC07D2B9
:102AD0002B4988682B4901F03BFC2B49086017E023
:102AE00023498868294901F001FB0DD224498868EF
:102AF000002101F0FBFA07D221498868214901F041
:102B00003DF92149086003E01D4880681E490860BE
:102B1000174988681B4901F0E9FB0ED214498868FF
:102B200001F090FA4FF4B47190FBF1F201FB120442
:102B3000204601F0C3FA0E4988600D49886814499F
:102B400001F0D4FA0DD20A49886801F07BFA1149E4
:102B500090FBF1F201FB1204204601F0AFFA0449A8
:102B6000886070BD50000020A0000020295C8F3DCF
:102B70000802002042000020A69BC43B0000344312
:102B8000B80000200000B44348000020000034C317
:102B90000000B4C398FEFFFF490050EAC12018BFEF
:102BA00004204A0D18BF40F0010040F2FF72B2EB62
:102BB000515F08BF40F00200012808BF05207047A0
:102BC0002DE9F0414F1E00EBC7010446D1E9000199
:102BD00015461E4637F006020DD02A46334600F051
:102BE000C7FD7F1E04EBC703D3E9002300F0B8FB49
:102BF00037F00602F1D1022F25D0042F13D0062F73
:102C000018BFBDE8F0812A46334600F0B1FDD4E993
:102C10000A2300F0A5FB2A46334600F0A9FDD4E9BB
:102C2000082300F09DFB2A46334600F0A1FDD4E9BD
:102C3000062300F095FB2A46334600F099FDD4E9BF
:102C4000042300F08DFB2A46334600F091FDD4E9C1
:102C5000022300F085FB2A46334600F089FDD4E9C3
:102C60000023BDE8F04100F07BBB012201F017BC5E
:102C700000F076BB002213461046114600F020BC3F
:102C8000024A0020110701F00ABC000001FDFFFF0D
:102C9000014600BF704700002DE9F04D8D4F21F037
:102CA000004A86B005460C46BA452ADBAAEB070067
:102CB00028430AD08848824501DC1AD1CDB106B03C
:102CC0002846BDE8F04DFFF7D0BF844A844B284624
:102CD00000F04EFD07460E46824A834B28462146A9
:102CE00000F046FD06B03A463346BDE8F04D00F030
:102CF00037BB0120FDF794FA06B0BDE8F04DFFF7B1
:102D0000B9BF7A48824542DABAF1795F0BDA2846D0
:102D1000FFF742FF042808BFFFF7B2FF284606B0BE
:102D20002146BDE8F08D2A460B46104600F020FDF6
:102D3000834602466E480E460B4606217844FFF74E
:102D40003FFF5A46334600F013FD804669488A46E5
:102D50005A46334604217844FFF732FF5A46334639
:102D600000F006FD00223B4600F0FAFA02460B4650
:102D70004046514600F0A4FB2A46234600F0F8FCEA
:102D800006B02A462346BDE8F04D00F0E9BA2846D1
:102D900024F0004100223D463B4600F0E7FD4FF0A5
:102DA000FF3201F07CFB0646024653480F460B46B5
:102DB00006217844FFF704FF32463B4600F0D8FC7A
:102DC000CDE900014D4832463B4604217844FFF7E7
:102DD000F7FE32463B4600F0CBFC00222B4600F0CB
:102DE000BFFA834602913046394600F061FA8046C8
:102DF00043480D46504517DCDDE900015A46029B69
:102E000000F05EFB42462B4600F0B2FC42462B46E9
:102E100000F0A6FA012201F042FB304A304B00F0EC
:102E200097FE304A304B4CE04FF0000A52460B46BA
:102E3000404600F095FACDE9031052462B46104665
:102E4000194600F095FC32463B4600F08FFDDDE967
:102E5000033200F035FB06460F46DDE900015A4615
:102E6000029B00F02DFB834600910122304639463B
:102E700001F015FB194A1A4B00F078FD06460F4683
:102E800001224046294601F00AFB5A46009B00F009
:102E90006FFC32463B4600F05BFE06460F460122C1
:102EA0005046294601F0FBFA0E4DDFF858802A46BD
:102EB000434600F05BFD32463B4600F057FD2A4694
:102EC000434600F053FD002CD8BF81F0004106B00E
:102ED000BDE8F08D0000F03F0000F07F075C143388
:102EE00026A6913C182D4454FB21F93F0000E03FF9
:102EF000F0170000061800007A1700009017000075
:102F00003333EF3FFB21E93F2DE9F84F04460D46EF
:102F100021F0004000917349814211DC72498842DE
:102F200001DC06D12CB120462946BDE8F84FFFF759
:102F30009CBE6E48002DCCBF6D496E49BDE8F88F30
:102F40006D49814211DD6D498142D8BF4FF0FF3696
:102F50006DDD20462946FFF71FFE042808BFFFF756
:102F60008FFE20462946BDE8F88F6549654F25F05C
:102F70000045814233DD6449814219DD0026324635
:102F80004FF080432046294600F0EAF980468A4601
:102F900001222046294601F082FA00223B4600F039
:102FA000D7FD4246534600F08BFA04460D463EE0FC
:102FB00001260022BA463B462046294600F0D0F9B9
:102FC00080460F46002253462046294600F0C0FDA9
:102FD00042463B4600F074FA04460D4627E04B4952
:102FE00081421BDDDFF828A102260022534620463D
:102FF000294600F0BDFB00223B4600F0B1F98046B7
:103000000F46002253462046294600F0A1FD4246C5
:103010003B4600F055FA04460D4608E003262246DA
:103020002B4600203B4900F04BFA04460D46224651
:103030002B461046194600F09BFB8B468246024603
:103040000B4600F095FB07460246334888460B4680
:1030500006217844FFF7B4FD52465B4600F088FB3A
:1030600082462E488B463A46434605217844FFF770
:10307000A7FD3A46434600F07BFB02460B46002E76
:10308000504659460CDA00F06BF922462B4600F008
:103090006FFB01B022462B46BDE8F04F00F066BC46
:1030A00000F05EF922462B4600F062FB1C4A7A448F
:1030B00002EBC603D3E9002300F04AFD22462B466B
:1030C00000F046FD174A7A4402EBC603D3E9002319
:1030D00000F04CFC009A002AB8BF81F00041BDE826
:1030E000F88F0000000010440000F07F182D4454B9
:1030F000FB21F93FFB21F9BF0000DC3F0000203E2F
:103100000000F33F0000F03F0000E63F0080034076
:103110000000F83F0000F0BF9215000050150000BD
:10312000EE140000B61400002DE9F04D9446CCF1E9
:10313000000423F000464CEA0404524F46EAD474DB
:103140009A46884621F00042BC4206D8454240EAF1
:10315000050442EAD474BC4204D9BDE8F04D62468D
:10316000FFF786BDAAF14055A5F17F6555EA0C042D
:103170000BD0022404EAAA74434DDFF810E144EABC
:10318000D87452EA000B04D00CE0BDE8F04DFFF714
:10319000BBBE002C14BF012CBDE8F08D022C30D03A
:1031A000032C32D056EA0C0B0AD0BE4220D1BA42D0
:1031B00009D126F0804622F080423346114617E0BE
:1031C00000291ADB25E0DFF8C8B0FB44002C04BF5F
:1031D000DBE90001BDE8F08D012C02BFDBE9000155
:1031E00081F00041BDE8F08D022C0AD0032C0CD0F8
:1031F000BA4212D1B8F1000F0BDA23482549BDE8D5
:10320000F08D28462449BDE8F08D28467146BDE87A
:10321000F08D1D482149BDE8F08D921B12153C2A06
:10322000C4BF19481D490EDCBAF1000FBEBF12F130
:103230003C0F0020014606DB624600F041F921F018
:103240000041FFF761FE002C08BFBDE8F08D012CA6
:1032500004BF81F00041BDE8F08D114A114B022CF2
:1032600007D000F075FC2A46BDE8F04D0A4B00F08F
:103270006FBC00F06DFC2A46BDE8F04D064B00F037
:1032800075BB00000000F07F182D4454FB2109C0DD
:103290004A140000FB21F9BFFB210940FB21F93F43
:1032A000075C143326A6A13CFEF7D6FC00BFFEE760
:1032B0002DE9F04106460F4600F064FB04000D4680
:1032C00018BF0120284320F00040C0F17F6000F1CA
:1032D000E040C00F0ED0301C18BF0120384320F052
:1032E0000040C0F17F6000F1E040C00F04BF01204A
:1032F000FCF796FF20462946BDE8F08121F0004208
:10330000A2F16052B2F5801F01F0004328BFD2F154
:103310007F6C0BD95FEA001C43EAC20242EB50709B
:1033200018BF704728BF20F001007047B2F5801F1A
:10333000BCBF184670474FEA410C1CF5001F02D273
:10334000084600F0CEBF70B500F0BCFA000000895E
:10335000FFF7F6BF4FF00040A0F580007047000077
:1033600010B591EA030F48BF83F0004300F1F883E2
:10337000841A71EB030C05D2121943EB0C03001BEA
:1033800061EB0C01DFF824E14FEA1154A4EB135C6C
:103390001EEA430F18BF9EEA445F73D023EA0E0370
:1033A000DCF1200E21EA045143F4801332D322FAD7
:1033B0000CFE10EB0E0023FA0CFE41EB0E01CCF1DB
:1033C000200E03FA0EFE10EB0E0051F10001B1F5D4
:1033D000801FCCF1200E32D201EB045112FA0EF212
:1033E000BDE8104058BF7047401C38BF5FEA42023A
:1033F00018BF7047002814BF20F0010041F1000100
:103400004FEA410313F5001F38BF7047A1F1C041D7
:1034100000F0A6BA012A43EB0302ACF1200CDCF168
:103420001F0E32BF4FF0000E23FA0CF310EB030017
:1034300041EB0451B4EB115FD0D0A1EB045101F585
:10344000801149085FEA300001EB04510ED350F1BE
:10345000000038BF12FA0EFE08D1BDE81040C9E7DF
:10346000401C38BF5FEA4202CAD1C3E7BDE8104042
:103470004FEA410313F5001F38BF7047A1F1C04167
:1034800000F06EBA9EEA445F08D011EA5E0FBDE814
:10349000104004BF01F0004100207047BDE810401B
:1034A00070B500F00FFA00BF64FBBE3E0000E0FF05
:1034B00002494FF0000000F0C0BF00BF0000F87FDD
:1034C0002DE9C04130B4DFF8A0C23CEA111418BFA6
:1034D0003CEA131400F0EC8081EA03051CEA1114A5
:1034E00044EAD57418BF1CEA131500F0C780A4EB9A
:1034F00005044FF0004545EAC12145EAC32341EAEE
:10350000505143EA525304F17F74994204F5003458
:103510004FEAC0204FEAC22208BF904200F09C80D0
:103520004FEA13650FF24016765D4FEA134506FB2E
:1035300005F7C7F1807706FB07F74FEAD737A7FBF8
:1035400003687642C8F58038A7FB06CE38BFA8F1DD
:10355000010807FB08E64FF0000EA6FB028CE6FB15
:1035600003CEDCF1000CCEF1004E38BFAEF1010EFF
:10357000A6FB0C584FF000074FF00005E6FB0E8746
:10358000A1FB08C6A0FB07CE16EB0E0645F1000511
:10359000E1FB076515F1E04E7EBFA4F580345FEADC
:1035A00046066D4116F1800745F100054FEA1727E1
:1035B0004FEA066647EA0567A6F1DE46B6F1805F88
:1035C0004FEA15251FD9384624F0010C05EBC471CC
:1035D000BCF1FE6F01EB0C1102D8F0BCBDE800811C
:1035E00024425CBF01F5801E9EEAC47F02D4F0BC79
:1035F000BDE80081244238D4F0BCA1F1C041BDE84F
:10360000004100F0ADB94FEAD22242EA43524FEAFC
:10361000D323A7FB02864FEAD02040EA415007FBA4
:1036200003661EEA0E0F4FEAD12105FB026658BF62
:10363000A6EB0056B6EB00564FEA520E4EEAC37E9A
:1036400018EB0E0E56EB530EBDD518EB02085E417B
:103650007F1C55F10005B6E74FF480154FF00007C9
:103660004FF000064FF00008ADE7F0BC4FF000004F
:1036700001F1C04101F00041BDE8008111EA0C1FD9
:103680000CEA131500D00CE013EA0C1F00F02580A3
:103690004FF00000F0BC81EA030101F00041BDE8F9
:1036A0000081F0BCBDE8004181EA030100F058B997
:1036B000F0BCBDE8004170B500F004F9097EFC3EA5
:1036C00000F007B881EA03014FF0000001F000416B
:1036D000704781EA030100F043B9F0BCBDE8004146
:1036E0004FF0000021497047FFFDFBF9F7F5F4F2B8
:1036F000F0EEEDEBE9E8E6E4E3E1E0DEDDDBDAD88D
:10370000D7D5D4D3D1D0CFCDCCCBCAC8C7C6C5C4EA
:10371000C2C1C0BFBEBDBCBBBAB9B8B7B6B5B4B301
:10372000B2B1B0AFAEADACABAAA9A8A8A7A6A5A4EC
:10373000A3A3A2A1A09F9F9E9D9C9C9B9A999998B0
:103740009797969595949393929191908F8F8E8E53
:103750008D8C8C8B8B8A89898888878786858584E0
:1037600084838382828181800000FF070000F87FCC
:10377000DFF848C170B51CEA111E1EBF1CEA131504
:103780009EEA0C0F95EA0C0F00F06F8081EA0304AB
:1037900023EA4C134EEAD47E21EA4C1141F4801105
:1037A00043F48013AE44A1FB024CA0FB0365AEF1D1
:1037B0007F7E361955EB0C05A1FB034C4CF1000341
:1037C000A0FB021C16EB0C06654153F100030942F5
:1037D00018BF46F0010613F4007F0BD14FEA033106
:1037E0004FEA0530340341EA155140EA16506FF0B4
:1037F00003020AE04FEAC3214FEAC520F40241EA7E
:10380000555140EA56506FF0020202EB2E4201EB96
:10381000025585EACE710AD05FEA440C18BF24F045
:10382000004450F1000041F1000120EAD47040F260
:10383000FE7C624500D270BDA84214BF4FF08044A8
:103840004FF04044002E08BF0024BEF1806FA8BF97
:10385000A1F1C041BDE8704080F282804FF00000CD
:1038600001F1C04101F0004170479EEA0C0F0CEAE3
:10387000131518BF95EA0C0F06D04FF0000081EA2F
:10388000030E0EF0004170BD00F01CF88900013EEF
:1038900000F007B800F009B84FEA430C5FEA5C5C3F
:1038A00008D081EA030100F05BB84FEA410C5FEAFF
:1038B0005C5CF6D14FF00000014970470000FF0743
:1038C0000000F87F0EF1020E2EF0030E5EF8046B7E
:1038D000364205D4012A43EB030515F5001F12D823
:1038E000012841EB010C1CF5001F0CD80ED14FEA4A
:1038F000D17C15F5001F0CEB4C0C0CF1020C08BF31
:103900004CEBD37C04E04FF0080C01E04FEAD37C91
:103910000CEB4C0526FA05F606F00706B6F1040C8A
:1039200006D20EEB860CBDE870404CF0010C6047EF
:10393000DFE80CF0090B02024FF000414FF00000ED
:10394000A1F5002170BD19461046012851EB010474
:1039500018BFD4F5001484BF002001F0004170BDF1
:103960000808A0F500114FEA3101704791EA030FF2
:1039700010B581F000413FF5FBAC83F0004300F04F
:10398000EFB800002DE9F04101F5801CBCF5001FE7
:10399000C0F2C3804FEA115C21EA0C510CF1FD0C1E
:1039A00041F480115FEA5C0C0CF5C07C01D340004F
:1039B00049413DA4890241EA905187028E0E0A0CCA
:1039C000A45D04FB04F602FB06F6C6F14046A4FB28
:1039D0000662F60D46EA422606FB06F4A4FB012326
:1039E0005242C3F1404338BF5B1EA6FB0242002493
:1039F000E6FB0324D20B42EA4446A6FB0623A1FBC6
:103A000002E2A3FB07E4A4184FF0000252F1000207
:103A1000E3FB01426442C2F1404E38BFAEF1010EF9
:103A2000A6FB04234FF00002E6FB0E32A2FB034686
:103A30004FF00004B61954F10004E2FB0264A1FB4C
:103A400006E6A4FB07E816EB08064FF0000858F15D
:103A50000008E4FB01687642C8F1405838BFA8F17D
:103A60000108A2FB06E4A3FB08E52D194FF00004B2
:103A700054F10004E2FB0854A1FB05E6A7FB04E8AF
:103A800018EB06084FF0000656F10006E1FB04862D
:103A900018F1200556F10006A809A8F11B08B10984
:103AA00008F03F08B8F10A0F40EA86601CD901EB24
:103AB0000C51BDE8F08100BFFCF5EEE8E2DDD8D3A3
:103AC000CFCBC7C3C0BDB9B6B4B1AEACA9A7A5A38F
:103AD000A19F9D9B9A9896959392908F8D8C8B89A0
:103AE0008887868584838281A0FB006800FB01F2C1
:103AF00008EB4208B8EB872807D5341858EB0104C7
:103B0000D5D5401C51F10001D1E7341A78EB0104FE
:103B1000CDD4401E71F10001C9E75FEA4C0C5FEAA9
:103B20009C5C0DD105D34FF0000001F00041BDE8D1
:103B3000F081BDE8F04170B5FFF7C4FE6DDBFFBE5C
:103B4000BDE8F0414FF00000004970470000F87FE9
:103B500010B591EA030F48BF83F000433FF508AC6E
:103B6000841A71EB030C07D212198CF0004C43EB52
:103B70000C03001B61EB0C01DFF8A4E14FEA1154C8
:103B8000A4EB135C1EEA430F18BF9EEA445F00F0EB
:103B9000B08023EA6E03524221EA0451C3EB6E0364
:103BA00038BF5B1EDCF1200E25D322FA0CFE10EB91
:103BB0000E0043FA0CFE41EB0E01CCF1200E03FA8D
:103BC0000EFE10EB0E0051F10001CCF1200E29D4B5
:103BD00012FA0EF201EB0451BDE8104058BF7047D5
:103BE000401C1CBFB2F1004F704700280CBF491C9D
:103BF00020F00100704712EB020E43EB030218BFE6
:103C00004FF0010E4EEA4202ACF1200CDCF11E0E28
:103C100054D943FA0CFE10EB0E0051F1FF31CCF1F8
:103C20001E0ED5D50EF1010E12FA0EFE404141EBEB
:103C3000010101EB445C5FEA5C5C10D910EBDE70C3
:103C400001EB045138BFBEF1004FBDE8104018BF72
:103C5000704700280CBF491C20F00100704730D28B
:103C60004FEAD42C11F5001124F400641BD0B1FAF2
:103C700081F20B3AA41AA41ED2F12003914030FA2B
:103C800003F31943904001EBCC71002C01EB04517C
:103C9000BDE81040A8BF704701F1C0414FF00000DF
:103CA00001F000417047B0FA80F310FA03F100D13F
:103CB00010BDE41A173C4805C90AE4E701EB0451BA
:103CC00010BD491001EB0451BDE810404FEA30002F
:103CD00002E04FF0000170474A0008BF0042F8D0F0
:103CE000B2F5001F28BF704701F000414FF00000FF
:103CF00070479EEA445F07D011EA5E0FBDE81040AE
:103D000004BF002100207047BDE8104070B5FFF7E8
:103D1000D9FD00BF40DFF63E83F0004110467047FA
:103D20000000E0FF43004FEAD30C4FEA3C0C434055
:103D30001FBF40070CF1605113F0FE4F70471CF09D
:103D4000006F03D100200CF0004170470CF00043DD
:103D500043EA507010B540EACC0000F07CFA00BF96
:103D6000000000924FEA0001FFF7FABD4FF000415A
:103D70004FF00000A1F500217047000090EA010F0C
:103D800048BF81F0004100F1EA82421A3CBF801A2C
:103D900089184FEAD0524FF07F4C1CEA410FA2EB3A
:103DA000D15318BF9CEA026F00F03B804FF0004CEB
:103DB0004CEA00204CEA012121FA03FC10EB0C0C28
:103DC0001ED202F1FF325FEA1C2040EBC25038BF26
:103DD00070471CF07F0F4FEA400C18BFBCF17F4FBB
:103DE00038BF7047C3F12003994008BF20F001009D
:103DF000BCF17F4F38BF7047A0F1C04000F071BAEE
:103E00004FEA3C00000A40EBC25028BF1CF0FF0FF5
:103E10004FEA400CE6D018BFBCF17F4F38BF704767
:103E2000EAE79CEA026F05D010EA5C0F08BF00F0D9
:103E30000040704710B500F00EFA00BF64FBBE3EB4
:103E4000401058BFC0F14040491058BFC1F1404137
:103E50008142EFF3008070474FF47F0C1CEAD012D0
:103E60001EBF1CEAD11392EA0C0F93EA0C0F00F06C
:103E7000858090EA010F48BF42F4807240F4000C44
:103E800041F400002CF07F4120F07F4000B58142DA
:103E9000A2EB03020FF2081CACEB504EC0F1000085
:103EA0009EF800E04FEA4E0E00FB0EFC38BF4900C2
:103EB0004FEA2C1C02F5FA020CFB0EF34FEACE1E61
:103EC0004FEA112C4FEAC1210EEB635E42EB224216
:103ED0000EFB0CFC4FEA1C5300FB03114FEA112CA4
:103EE0004FEA01310EFB0CFC4FEADC4C00FB0C11DD
:103EF000C14228BF09184CEB03335DF804EB10EB0B
:103F0000410143EBC250B2F57C0F38BF704729D551
:103F100012F0F00F1CBF00F1C04000F000407047ED
:103F2000008182838485868788898B8C8D8E8F9192
:103F30009293959697999A9C9D9FA0A2A3A5A7A8B6
:103F4000AAACAEB0B2B3B5B7B9BCBEC0C2C5C7C9E2
:103F5000CCCED1D4D7D9DCDFE2E6E9ECF0F3F7FA46
:103F6000FE0000004FEA400C0CF1807CBCF17E4F5B
:103F700028BF7047B0F1C04000F0B3B990EA010F1C
:103F80000CEAD11348BF42F48072624538BF6345E2
:103F900007D213F47F0F16D080EA010000F0004032
:103FA000704710B500F057F9097EFC3E00F005B8E7
:103FB00080EA010000F00040704780EA010000F054
:103FC000004000F08EB912F47F0F04BF0248704722
:103FD00080EA010000F085B90000C07F50EA010CC2
:103FE00000F113801CF5000F58BFBCF5000F01D481
:103FF0008842704707D710F5000F58BF11F5000F22
:1040000015D488427047894270471CF5000F04D5CB
:10401000BCF5000FF7D5814270474FF0807C1CEB58
:10402000400F38BF1CEB410F01D28142704710B5E1
:1040300000F011F9922449004FF000504FF08051E8
:10404000FFF7FEBE41000B0ED3F19E0208D950F4DB
:1040500000034FEA032323FA02F048BF40427047AF
:1040600010B500F0F8F800BF499224800020704796
:104070006FF0004282EA200070470000C10DD1F1CC
:104080009E0206DB4FEA002343F0004323FA02F0CE
:104090007047004207D54FEA4001B1F1FE4F02D20E
:1040A0004FF00000704710B500F0D5F84992248019
:1040B000002070476FEA20007047000010F00041B8
:1040C00048BF4042B0FA80F310FA03F2C3F19D03F7
:1040D0000BD051EAC35101EB1220530638BF704791
:1040E00000F1010008BF20F00100704750EA010C08
:1040F00000F113801CF5000F58BFBCF5000F01D470
:104100008842704707D710F5000F58BF11F5000F10
:1041100015D488427047894270471CF5000F04D5BA
:10412000BCF5000FF7D5814270474FF0807C1CEB47
:10413000400F38BF1CEB410F01D28142704710B5D0
:1041400000F089F8922449004FF000504FF0805160
:10415000FFF776BE4FF47F0C1CEAD0121EBF1CEA9C
:10416000D11392EA0C0F93EA0C0F00F0478090EA0B
:10417000010F48BF42F480724FF0004C4CEA00201F
:104180004CEA012102EB0302A0FB0113A2F500029D
:10419000002918BF43F001035B0028BF4FEA330337
:1041A00042EB22425FEA132C4CEBC2502EBFBCEB19
:1041B000436FB2F57C0F70474FEA036CBCF1004FC0
:1041C00008BF20F00100B2F57C0F38BF70470BD557
:1041D00082F0FF0212F5803FC8BF704700F1C04077
:1041E000D8BF00F00040704700F5000C5FEA4C0CAF
:1041F00048BF7047B0F1C04000F073B890EA010FBB
:104200000CEAD11348BF42F48072624538BF63455F
:1042100004D280EA010000F00040704710B500F0C1
:104220001AF800BF8900013E00F007B800F009B895
:104230005FEA410C5FEA1C6C08D080EA010000F0E4
:1042400050B85FEA400C5FEA1C6CF6D14FF00040BA
:10425000A0F5800070470EF1020E2EF0030E5EF8FE
:10426000044B244204D44FEA4102B2F17F4F11D8EB
:104270004FEA4003B3F17F4F0CD80ED14FEAD07C08
:10428000B2F17F4F0CEB4C0C0CF1020C08BF4CEB65
:10429000D17C04E04FF0080C01E04FEAD17C0CEB3C
:1042A0004C0324FA03F404F00704B4F1040C06D21E
:1042B0000EEB840CBDE810404CF0010C6047DFE8C9
:1042C0000CF0070802024FF00040A0F5800010BD7E
:1042D0000846420018BFD2F1807288BF00F000404B
:1042E00010BDFF2141EAD050C005704751EA000CD3
:1042F00000F113801CF5000F58BFBCF5000F01D46E
:104300008142704707D711F5000F58BF10F5000F15
:1043100015D481427047894270471CF5000F04D5BF
:10432000BCF5000FF7D5884270474FF0807C1CEB3E
:10433000410F38BF1CEB400F01D28842704780EA22
:10434000010081EA000180EA0100FFF7F8BE0000E9
:1043500090EA010F48BF81F000413FF516AD421AC7
:1043600004D882F00042A0EB020011444FEAD05280
:104370004FF07F4C1CEA410FA2EBD15318BF9CEACF
:10438000026F4AD04FF0004C4CEA00204CEA012169
:1043900021FA03FCB0EB0C0C0FD412F0FE0F36D058
:1043A0005FEA4C001DD5001240EBC25038BF704789
:1043B0001CF03F0F18BF70470BE0A2F101025FEA4B
:1043C0001C2040EBC25038BF70471CF07F0F18BF55
:1043D0007047C3F12003994014BF401E20F0010034
:1043E000704780084FEA122308BF7047B0FA80FC7C
:1043F000A2EB0C02CCF1280C60FA0CF093EA122F1D
:1044000004BF00EBC25070474FEAC3707047130AF5
:104410005FEADC1008BF7047F6E79CEA026F04D041
:1044200010EA5C0F08BF0020704710B5FFF713FFBC
:1044300040DFF63E81F0004070470CF00F03092B7F
:1044400008BF082000F059800A2B0BD0082B18BF9A
:10445000704708BF1CF0400F0AD04FF000004FF02B
:10446000000170471CF0400F18BF4FF0004070472C
:104470001CF0100F08D020F0704300F07F4242EA99
:10448000D3014FEA4370704700F0604021F07F4253
:1044900042EA000201F07F4040EA727070474FF03C
:1044A000FF0C4CF4E06C1CEA11531CBF9CEA030C9B
:1044B0009445C2BFDA4201EB02517047002B0DD088
:1044C000BCF1000F0FD0002A01F00041A4BF41F061
:1044D000E04141F07F614FF00000704701F0004182
:1044E0004FF00000704750EA01334FF09B0C18BFAB
:1044F0004CF0806C7EF4DCAF70471CF4801F11D050
:104500001CF4E02F03D06FEACC31490070474FF024
:104510004050EFF3008222F0704242EA000282F340
:10452000008870474FF00000704700000000000056
:10453000555555555555C53F7D6FEB0312D6D4BF24
:104540005544880E55C1C93F3B8F68B52882A4BF2A
:1045500088B20175E0EF493F09F7FD0DE13D023FEB
:104560004B2D8A1C273A03C0C88A599CE52A004073
:1045700059018D1B6C06E6BF82922EB1C5B8B33FC0
:104580004FBB610567ACDD3F182D4454FB21E93F6B
:104590009BF681D20B73EF3F182D4454FB21F93F5A
:1045A000E2652F227F2B7A3C075C143326A6813CE0
:1045B000BDCBF07A8807703C075C143326A6913C8B
:1045C000C4EB98999999C9BF711623FEC671BCBFF7
:1045D0006D9A74AFF2B0B3BF9AFDDE522DDEADBF5F
:1045E0002F6C6A2C44B4A2BF0D5555555555D53F77
:1045F000FF8300922449C23F6E204CC5CD45B73F92
:10460000513DD0A0660DB13FEB0D76244B7BA93F09
:1046100011DA22E33AAD903F0000000000000000F4
:104620004046000800000020A00000006C010008C7
:10463000E0460008A0000020000E000088010008ED
:10464000000000000000000000000000000000006A
:10465000000000000000000000000000000000005A
:104660000000803F0000000000000000000000008B
:104670000000803F0000000000000000000000007B
:10468000000000000000000000000000000000002A
:104690000000000000A24A0400000000000000002A
:1046A00001020304060708090000000000000000E2
:1046B00000000000000000000000000000000000FA
:1046C00000000000000000000000000000000000EA
:1046D0000102030401020304060708090204060894
:0400000508000131BD
:00000001FF
